{
  "_format": "hh-sol-artifact-1",
  "contractName": "Voting",
  "sourceName": "contracts/Voting.sol",
  "abi": [
    {
      "inputs": [],
      "stateMutability": "nonpayable",
      "type": "constructor"
    },
    {
      "anonymous": false,
      "inputs": [
        {
          "indexed": true,
          "internalType": "uint256",
          "name": "electionId",
          "type": "uint256"
        },
        {
          "indexed": true,
          "internalType": "uint256",
          "name": "candidateId",
          "type": "uint256"
        },
        {
          "indexed": false,
          "internalType": "string",
          "name": "name",
          "type": "string"
        }
      ],
      "name": "CandidateAdded",
      "type": "event"
    },
    {
      "anonymous": false,
      "inputs": [
        {
          "indexed": true,
          "internalType": "uint256",
          "name": "electionId",
          "type": "uint256"
        }
      ],
      "name": "ElectionClosed",
      "type": "event"
    },
    {
      "anonymous": false,
      "inputs": [
        {
          "indexed": true,
          "internalType": "uint256",
          "name": "electionId",
          "type": "uint256"
        },
        {
          "indexed": false,
          "internalType": "string",
          "name": "name",
          "type": "string"
        }
      ],
      "name": "ElectionCreated",
      "type": "event"
    },
    {
      "anonymous": false,
      "inputs": [
        {
          "indexed": true,
          "internalType": "uint256",
          "name": "electionId",
          "type": "uint256"
        }
      ],
      "name": "ElectionOpened",
      "type": "event"
    },
    {
      "anonymous": false,
      "inputs": [
        {
          "indexed": true,
          "internalType": "uint256",
          "name": "electionId",
          "type": "uint256"
        },
        {
          "indexed": true,
          "internalType": "uint256",
          "name": "candidateId",
          "type": "uint256"
        },
        {
          "indexed": false,
          "internalType": "bytes32",
          "name": "hashedStudentId",
          "type": "bytes32"
        }
      ],
      "name": "VoteCast",
      "type": "event"
    },
    {
      "inputs": [
        {
          "internalType": "uint256",
          "name": "_electionId",
          "type": "uint256"
        },
        {
          "internalType": "string",
          "name": "_name",
          "type": "string"
        },
        {
          "internalType": "string",
          "name": "_position",
          "type": "string"
        }
      ],
      "name": "addCandidate",
      "outputs": [],
      "stateMutability": "nonpayable",
      "type": "function"
    },
    {
      "inputs": [
        {
          "internalType": "uint256",
          "name": "_electionId",
          "type": "uint256"
        },
        {
          "internalType": "uint256[]",
          "name": "_candidateIds",
          "type": "uint256[]"
        },
        {
          "internalType": "bytes32",
          "name": "_hashedStudentId",
          "type": "bytes32"
        }
      ],
      "name": "castBulkVote",
      "outputs": [],
      "stateMutability": "nonpayable",
      "type": "function"
    },
    {
      "inputs": [
        {
          "internalType": "uint256",
          "name": "_electionId",
          "type": "uint256"
        },
        {
          "internalType": "uint256",
          "name": "_candidateId",
          "type": "uint256"
        },
        {
          "internalType": "bytes32",
          "name": "_hashedStudentId",
          "type": "bytes32"
        }
      ],
      "name": "castVote",
      "outputs": [],
      "stateMutability": "nonpayable",
      "type": "function"
    },
    {
      "inputs": [
        {
          "internalType": "uint256",
          "name": "_electionId",
          "type": "uint256"
        },
        {
          "internalType": "bytes32",
          "name": "_hashedStudentId",
          "type": "bytes32"
        }
      ],
      "name": "checkVoted",
      "outputs": [
        {
          "internalType": "bool",
          "name": "",
          "type": "bool"
        }
      ],
      "stateMutability": "view",
      "type": "function"
    },
    {
      "inputs": [
        {
          "internalType": "uint256",
          "name": "_electionId",
          "type": "uint256"
        }
      ],
      "name": "closeElection",
      "outputs": [],
      "stateMutability": "nonpayable",
      "type": "function"
    },
    {
      "inputs": [
        {
          "internalType": "string",
          "name": "_name",
          "type": "string"
        }
      ],
      "name": "createElection",
      "outputs": [],
      "stateMutability": "nonpayable",
      "type": "function"
    },
    {
      "inputs": [],
      "name": "electionCount",
      "outputs": [
        {
          "internalType": "uint256",
          "name": "",
          "type": "uint256"
        }
      ],
      "stateMutability": "view",
      "type": "function"
    },
    {
      "inputs": [
        {
          "internalType": "uint256",
          "name": "_electionId",
          "type": "uint256"
        }
      ],
      "name": "getCandidates",
      "outputs": [
        {
          "components": [
            {
              "internalType": "uint256",
              "name": "id",
              "type": "uint256"
            },
            {
              "internalType": "string",
              "name": "name",
              "type": "string"
            },
            {
              "internalType": "string",
              "name": "position",
              "type": "string"
            },
            {
              "internalType": "uint256",
              "name": "voteCount",
              "type": "uint256"
            }
          ],
          "internalType": "struct Voting.Candidate[]",
          "name": "",
          "type": "tuple[]"
        }
      ],
      "stateMutability": "view",
      "type": "function"
    },
    {
      "inputs": [
        {
          "internalType": "uint256",
          "name": "_electionId",
          "type": "uint256"
        }
      ],
      "name": "getElection",
      "outputs": [
        {
          "components": [
            {
              "internalType": "uint256",
              "name": "id",
              "type": "uint256"
            },
            {
              "internalType": "string",
              "name": "name",
              "type": "string"
            },
            {
              "internalType": "bool",
              "name": "isOpen",
              "type": "bool"
            },
            {
              "internalType": "uint256",
              "name": "startTime",
              "type": "uint256"
            },
            {
              "internalType": "uint256",
              "name": "endTime",
              "type": "uint256"
            }
          ],
          "internalType": "struct Voting.Election",
          "name": "",
          "type": "tuple"
        }
      ],
      "stateMutability": "view",
      "type": "function"
    },
    {
      "inputs": [
        {
          "internalType": "uint256",
          "name": "_electionId",
          "type": "uint256"
        }
      ],
      "name": "openElection",
      "outputs": [],
      "stateMutability": "nonpayable",
      "type": "function"
    },
    {
      "inputs": [],
      "name": "owner",
      "outputs": [
        {
          "internalType": "address",
          "name": "",
          "type": "address"
        }
      ],
      "stateMutability": "view",
      "type": "function"
    }
  ],
  "bytecode": "0x608060405234801561001057600080fd5b5033600460006101000a81548173ffffffffffffffffffffffffffffffffffffffff021916908373ffffffffffffffffffffffffffffffffffffffff16021790555061235d806100616000396000f3fe608060405234801561001057600080fd5b50600436106100a95760003560e01c8063997d283011610071578063997d2830146101505780639a1d59561461016e5780639d7107771461018a578063a08e3253146101ba578063e6c62efc146101ea578063f4e428e114610206576100a9565b806309e33d07146100ae57806315cf4a5f146100ca5780633e39a7a5146100e65780637504e5a0146101165780638da5cb5b14610132575b600080fd5b6100c860048036038101906100c39190611428565b610222565b005b6100e460048036038101906100df91906114ba565b6103e2565b005b61010060048036038101906100fb9190611428565b6105a6565b60405161010d91906116d2565b60405180910390f35b610130600480360381019061012b919061172a565b6107a3565b005b61013a610a03565b60405161014791906117be565b60405180910390f35b610158610a29565b60405161016591906117e8565b60405180910390f35b61018860048036038101906101839190611428565b610a2f565b005b6101a4600480360381019061019f9190611428565b610c48565b6040516101b19190611894565b60405180910390f35b6101d460048036038101906101cf91906118b6565b610d93565b6040516101e19190611905565b60405180910390f35b61020460048036038101906101ff9190611920565b610e22565b005b610220600480360381019061021b9190611a0b565b6110fb565b005b600460009054906101000a900473ffffffffffffffffffffffffffffffffffffffff1673ffffffffffffffffffffffffffffffffffffffff163373ffffffffffffffffffffffffffffffffffffffff16146102b2576040517f08c379a00000000000000000000000000000000000000000000000000000000081526004016102a990611adc565b60405180910390fd5b806000811180156102c557506000548111155b610304576040517f08c379a00000000000000000000000000000000000000000000000000000000081526004016102fb90611b48565b60405180910390fd5b6001600083815260200190815260200160002060020160009054906101000a900460ff16610367576040517f08c379a000000000000000000000000000000000000000000000000000000000815260040161035e90611bb4565b60405180910390fd5b60006001600084815260200190815260200160002060020160006101000a81548160ff021916908315150217905550426001600084815260200190815260200160002060040181905550817f393c4b8e62f1195313cf17dcf00793c668ddfc35881cd8015559c074f6d61e8360405160405180910390a25050565b600460009054906101000a900473ffffffffffffffffffffffffffffffffffffffff1673ffffffffffffffffffffffffffffffffffffffff163373ffffffffffffffffffffffffffffffffffffffff1614610472576040517f08c379a000000000000000000000000000000000000000000000000000000000815260040161046990611adc565b60405180910390fd5b60008081548092919061048490611c03565b91905055506040518060a00160405280600054815260200183838080601f016020809104026020016040519081016040528093929190818152602001838380828437600081840152601f19601f820116905080830192505050505050508152602001600015158152602001600081526020016000815250600160008054815260200190815260200160002060008201518160000155602082015181600101908161052e9190611e86565b5060408201518160020160006101000a81548160ff02191690831515021790555060608201518160030155608082015181600401559050506000547f52be7c4e77b4de76b7607d621492061fe13b58597e72dfb5e51ab8f6187ed141838360405161059a929190611f94565b60405180910390a25050565b6060816000811180156105bb57506000548111155b6105fa576040517f08c379a00000000000000000000000000000000000000000000000000000000081526004016105f190611b48565b60405180910390fd5b60026000848152602001908152602001600020805480602002602001604051908101604052809291908181526020016000905b8282101561079757838290600052602060002090600402016040518060800160405290816000820154815260200160018201805461066a90611ca9565b80601f016020809104026020016040519081016040528092919081815260200182805461069690611ca9565b80156106e35780601f106106b8576101008083540402835291602001916106e3565b820191906000526020600020905b8154815290600101906020018083116106c657829003601f168201915b505050505081526020016002820180546106fc90611ca9565b80601f016020809104026020016040519081016040528092919081815260200182805461072890611ca9565b80156107755780601f1061074a57610100808354040283529160200191610775565b820191906000526020600020905b81548152906001019060200180831161075857829003601f168201915b505050505081526020016003820154815250508152602001906001019061062d565b50505050915050919050565b826000811180156107b657506000548111155b6107f5576040517f08c379a00000000000000000000000000000000000000000000000000000000081526004016107ec90611b48565b60405180910390fd5b6001600085815260200190815260200160002060020160009054906101000a900460ff16610858576040517f08c379a000000000000000000000000000000000000000000000000000000000815260040161084f90612004565b60405180910390fd5b60036000858152602001908152602001600020600083815260200190815260200160002060009054906101000a900460ff16156108ca576040517f08c379a00000000000000000000000000000000000000000000000000000000081526004016108c190612070565b60405180910390fd5b6000831180156108f0575060026000858152602001908152602001600020805490508311155b61092f576040517f08c379a0000000000000000000000000000000000000000000000000000000008152600401610926906120dc565b60405180910390fd5b600160036000868152602001908152602001600020600084815260200190815260200160002060006101000a81548160ff0219169083151502179055506002600085815260200190815260200160002060018461098c91906120fc565b8154811061099d5761099c612130565b5b906000526020600020906004020160030160008154809291906109bf90611c03565b919050555082847f96c313364ec07441c94195f44ed1e5f2656059c98a7c0c68466dac90c6fd8bf9846040516109f5919061216e565b60405180910390a350505050565b600460009054906101000a900473ffffffffffffffffffffffffffffffffffffffff1681565b60005481565b600460009054906101000a900473ffffffffffffffffffffffffffffffffffffffff1673ffffffffffffffffffffffffffffffffffffffff163373ffffffffffffffffffffffffffffffffffffffff1614610abf576040517f08c379a0000000000000000000000000000000000000000000000000000000008152600401610ab690611adc565b60405180910390fd5b80600081118015610ad257506000548111155b610b11576040517f08c379a0000000000000000000000000000000000000000000000000000000008152600401610b0890611b48565b60405180910390fd5b6001600083815260200190815260200160002060020160009054906101000a900460ff1615610b75576040517f08c379a0000000000000000000000000000000000000000000000000000000008152600401610b6c906121d5565b60405180910390fd5b6000600260008481526020019081526020016000208054905011610bce576040517f08c379a0000000000000000000000000000000000000000000000000000000008152600401610bc590612241565b60405180910390fd5b600180600084815260200190815260200160002060020160006101000a81548160ff021916908315150217905550426001600084815260200190815260200160002060030181905550817f0589f8b93514c651c0c92b06bdb8118fe508daadf2ffdac1f516191be20fcb8560405160405180910390a25050565b610c506113b7565b81600081118015610c6357506000548111155b610ca2576040517f08c379a0000000000000000000000000000000000000000000000000000000008152600401610c9990611b48565b60405180910390fd5b600160008481526020019081526020016000206040518060a001604052908160008201548152602001600182018054610cda90611ca9565b80601f0160208091040260200160405190810160405280929190818152602001828054610d0690611ca9565b8015610d535780601f10610d2857610100808354040283529160200191610d53565b820191906000526020600020905b815481529060010190602001808311610d3657829003601f168201915b505050505081526020016002820160009054906101000a900460ff1615151515815260200160038201548152602001600482015481525050915050919050565b600082600081118015610da857506000548111155b610de7576040517f08c379a0000000000000000000000000000000000000000000000000000000008152600401610dde90611b48565b60405180910390fd5b60036000858152602001908152602001600020600084815260200190815260200160002060009054906101000a900460ff1691505092915050565b600460009054906101000a900473ffffffffffffffffffffffffffffffffffffffff1673ffffffffffffffffffffffffffffffffffffffff163373ffffffffffffffffffffffffffffffffffffffff1614610eb2576040517f08c379a0000000000000000000000000000000000000000000000000000000008152600401610ea990611adc565b60405180910390fd5b84600081118015610ec557506000548111155b610f04576040517f08c379a0000000000000000000000000000000000000000000000000000000008152600401610efb90611b48565b60405180910390fd5b6001600087815260200190815260200160002060020160009054906101000a900460ff1615610f68576040517f08c379a0000000000000000000000000000000000000000000000000000000008152600401610f5f906122d3565b60405180910390fd5b600060016002600089815260200190815260200160002080549050610f8d91906122f3565b905060026000888152602001908152602001600020604051806080016040528083815260200188888080601f016020809104026020016040519081016040528093929190818152602001838380828437600081840152601f19601f82011690508083019250505050505050815260200186868080601f016020809104026020016040519081016040528093929190818152602001838380828437600081840152601f19601f820116905080830192505050505050508152602001600081525090806001815401808255809150506001900390600052602060002090600402016000909190919091506000820151816000015560208201518160010190816110949190611e86565b5060408201518160020190816110aa9190611e86565b5060608201518160030155505080877fed8911b3df733b7d5f75724158e54478ea12e30f49c9d31b5261879f5b76586f88886040516110ea929190611f94565b60405180910390a350505050505050565b8360008111801561110e57506000548111155b61114d576040517f08c379a000000000000000000000000000000000000000000000000000000000815260040161114490611b48565b60405180910390fd5b6001600086815260200190815260200160002060020160009054906101000a900460ff166111b0576040517f08c379a00000000000000000000000000000000000000000000000000000000081526004016111a790612004565b60405180910390fd5b60036000868152602001908152602001600020600083815260200190815260200160002060009054906101000a900460ff1615611222576040517f08c379a000000000000000000000000000000000000000000000000000000000815260040161121990612070565b60405180910390fd5b600160036000878152602001908152602001600020600084815260200190815260200160002060006101000a81548160ff02191690831515021790555060005b8484905081101561135c57600085858381811061128257611281612130565b5b9050602002013590506000811180156112b1575060026000888152602001908152602001600020805490508111155b6112f0576040517f08c379a00000000000000000000000000000000000000000000000000000000081526004016112e7906120dc565b60405180910390fd5b6002600088815260200190815260200160002060018261131091906120fc565b8154811061132157611320612130565b5b9060005260206000209060040201600301600081548092919061134390611c03565b919050555050808061135490611c03565b915050611262565b508383600081811061137157611370612130565b5b90506020020135857f96c313364ec07441c94195f44ed1e5f2656059c98a7c0c68466dac90c6fd8bf9846040516113a8919061216e565b60405180910390a35050505050565b6040518060a00160405280600081526020016060815260200160001515815260200160008152602001600081525090565b600080fd5b600080fd5b6000819050919050565b611405816113f2565b811461141057600080fd5b50565b600081359050611422816113fc565b92915050565b60006020828403121561143e5761143d6113e8565b5b600061144c84828501611413565b91505092915050565b600080fd5b600080fd5b600080fd5b60008083601f84011261147a57611479611455565b5b8235905067ffffffffffffffff8111156114975761149661145a565b5b6020830191508360018202830111156114b3576114b261145f565b5b9250929050565b600080602083850312156114d1576114d06113e8565b5b600083013567ffffffffffffffff8111156114ef576114ee6113ed565b5b6114fb85828601611464565b92509250509250929050565b600081519050919050565b600082825260208201905092915050565b6000819050602082019050919050565b61153c816113f2565b82525050565b600081519050919050565b600082825260208201905092915050565b60005b8381101561157c578082015181840152602081019050611561565b60008484015250505050565b6000601f19601f8301169050919050565b60006115a482611542565b6115ae818561154d565b93506115be81856020860161155e565b6115c781611588565b840191505092915050565b60006080830160008301516115ea6000860182611533565b50602083015184820360208601526116028282611599565b9150506040830151848203604086015261161c8282611599565b91505060608301516116316060860182611533565b508091505092915050565b600061164883836115d2565b905092915050565b6000602082019050919050565b600061166882611507565b6116728185611512565b93508360208202850161168485611523565b8060005b858110156116c057848403895281516116a1858261163c565b94506116ac83611650565b925060208a01995050600181019050611688565b50829750879550505050505092915050565b600060208201905081810360008301526116ec818461165d565b905092915050565b6000819050919050565b611707816116f4565b811461171257600080fd5b50565b600081359050611724816116fe565b92915050565b600080600060608486031215611743576117426113e8565b5b600061175186828701611413565b935050602061176286828701611413565b925050604061177386828701611715565b9150509250925092565b600073ffffffffffffffffffffffffffffffffffffffff82169050919050565b60006117a88261177d565b9050919050565b6117b88161179d565b82525050565b60006020820190506117d360008301846117af565b92915050565b6117e2816113f2565b82525050565b60006020820190506117fd60008301846117d9565b92915050565b60008115159050919050565b61181881611803565b82525050565b600060a0830160008301516118366000860182611533565b506020830151848203602086015261184e8282611599565b9150506040830151611863604086018261180f565b5060608301516118766060860182611533565b5060808301516118896080860182611533565b508091505092915050565b600060208201905081810360008301526118ae818461181e565b905092915050565b600080604083850312156118cd576118cc6113e8565b5b60006118db85828601611413565b92505060206118ec85828601611715565b9150509250929050565b6118ff81611803565b82525050565b600060208201905061191a60008301846118f6565b92915050565b60008060008060006060868803121561193c5761193b6113e8565b5b600061194a88828901611413565b955050602086013567ffffffffffffffff81111561196b5761196a6113ed565b5b61197788828901611464565b9450945050604086013567ffffffffffffffff81111561199a576119996113ed565b5b6119a688828901611464565b92509250509295509295909350565b60008083601f8401126119cb576119ca611455565b5b8235905067ffffffffffffffff8111156119e8576119e761145a565b5b602083019150836020820283011115611a0457611a0361145f565b5b9250929050565b60008060008060608587031215611a2557611a246113e8565b5b6000611a3387828801611413565b945050602085013567ffffffffffffffff811115611a5457611a536113ed565b5b611a60878288016119b5565b93509350506040611a7387828801611715565b91505092959194509250565b600082825260208201905092915050565b7f4e6f74206f776e65720000000000000000000000000000000000000000000000600082015250565b6000611ac6600983611a7f565b9150611ad182611a90565b602082019050919050565b60006020820190508181036000830152611af581611ab9565b9050919050565b7f456c656374696f6e206e6f7420666f756e640000000000000000000000000000600082015250565b6000611b32601283611a7f565b9150611b3d82611afc565b602082019050919050565b60006020820190508181036000830152611b6181611b25565b9050919050565b7f4e6f74206f70656e000000000000000000000000000000000000000000000000600082015250565b6000611b9e600883611a7f565b9150611ba982611b68565b602082019050919050565b60006020820190508181036000830152611bcd81611b91565b9050919050565b7f4e487b7100000000000000000000000000000000000000000000000000000000600052601160045260246000fd5b6000611c0e826113f2565b91507fffffffffffffffffffffffffffffffffffffffffffffffffffffffffffffffff8203611c4057611c3f611bd4565b5b600182019050919050565b7f4e487b7100000000000000000000000000000000000000000000000000000000600052604160045260246000fd5b7f4e487b7100000000000000000000000000000000000000000000000000000000600052602260045260246000fd5b60006002820490506001821680611cc157607f821691505b602082108103611cd457611cd3611c7a565b5b50919050565b60008190508160005260206000209050919050565b60006020601f8301049050919050565b600082821b905092915050565b600060088302611d3c7fffffffffffffffffffffffffffffffffffffffffffffffffffffffffffffffff82611cff565b611d468683611cff565b95508019841693508086168417925050509392505050565b6000819050919050565b6000611d83611d7e611d79846113f2565b611d5e565b6113f2565b9050919050565b6000819050919050565b611d9d83611d68565b611db1611da982611d8a565b848454611d0c565b825550505050565b600090565b611dc6611db9565b611dd1818484611d94565b505050565b5b81811015611df557611dea600082611dbe565b600181019050611dd7565b5050565b601f821115611e3a57611e0b81611cda565b611e1484611cef565b81016020851015611e23578190505b611e37611e2f85611cef565b830182611dd6565b50505b505050565b600082821c905092915050565b6000611e5d60001984600802611e3f565b1980831691505092915050565b6000611e768383611e4c565b9150826002028217905092915050565b611e8f82611542565b67ffffffffffffffff811115611ea857611ea7611c4b565b5b611eb28254611ca9565b611ebd828285611df9565b600060209050601f831160018114611ef05760008415611ede578287015190505b611ee88582611e6a565b865550611f50565b601f198416611efe86611cda565b60005b82811015611f2657848901518255600182019150602085019450602081019050611f01565b86831015611f435784890151611f3f601f891682611e4c565b8355505b6001600288020188555050505b505050505050565b82818337600083830152505050565b6000611f738385611a7f565b9350611f80838584611f58565b611f8983611588565b840190509392505050565b60006020820190508181036000830152611faf818486611f67565b90509392505050565b7f456c656374696f6e206e6f74206f70656e000000000000000000000000000000600082015250565b6000611fee601183611a7f565b9150611ff982611fb8565b602082019050919050565b6000602082019050818103600083015261201d81611fe1565b9050919050565b7f416c726561647920766f74656400000000000000000000000000000000000000600082015250565b600061205a600d83611a7f565b915061206582612024565b602082019050919050565b600060208201905081810360008301526120898161204d565b9050919050565b7f496e76616c69642063616e646964617465000000000000000000000000000000600082015250565b60006120c6601183611a7f565b91506120d182612090565b602082019050919050565b600060208201905081810360008301526120f5816120b9565b9050919050565b6000612107826113f2565b9150612112836113f2565b925082820390508181111561212a57612129611bd4565b5b92915050565b7f4e487b7100000000000000000000000000000000000000000000000000000000600052603260045260246000fd5b612168816116f4565b82525050565b6000602082019050612183600083018461215f565b92915050565b7f416c7265616479206f70656e0000000000000000000000000000000000000000600082015250565b60006121bf600c83611a7f565b91506121ca82612189565b602082019050919050565b600060208201905081810360008301526121ee816121b2565b9050919050565b7f4e6f2063616e6469646174657300000000000000000000000000000000000000600082015250565b600061222b600d83611a7f565b9150612236826121f5565b602082019050919050565b6000602082019050818103600083015261225a8161221e565b9050919050565b7f43616e6e6f74206164642063616e64696461746520746f206f70656e20656c6560008201527f6374696f6e000000000000000000000000000000000000000000000000000000602082015250565b60006122bd602583611a7f565b91506122c882612261565b604082019050919050565b600060208201905081810360008301526122ec816122b0565b9050919050565b60006122fe826113f2565b9150612309836113f2565b925082820190508082111561232157612320611bd4565b5b9291505056fea264697066735822122041d4e725f870a962abed9eab480eeed1328041e425d8ccd7e25bcf499ce04cd464736f6c63430008140033",
  "linkReferences": {},
  "deployedLinkReferences": {}
}